:100000000C942A000C94F1080C9447000C944700BF
:100010000C9436150C94F3140C9447000C94470080
:100020000C9447000C9447000C9430140C94E31388
:100030000C9447000C94D7150C9447000C94FD15B4
:100040000C946F000C9447000C9447000C944700EC
:100050000C94470011241FBECFE5D8E0DEBFCDBF12
:1000600018E0A0E6B0E0EEE6F0E302C005900D92E5
:10007000AE30B107D9F728E0AEE0B8E001C01D927C
:10008000A233B207E1F70E94FB0B0C9435180C94D5
:10009000000087B18F73806487B987B18F7D87B97E
:1000A00086B1806286B980B78F7180BF86B1876064
:1000B00086B98FB780688FBF86B1886086B986B1F0
:1000C000806886B9089597B1907E892B87B986B1EB
:1000D000806486B9349BFECF84B195B108951F9298
:1000E0000F920FB60F9211242F933F934F935F936C
:1000F0006F937F938F939F93AF93BF93EF93FF93F0
:1001000087E00E94630090930F0880930E08C997C0
:1001100028F061E084E690E00E943B0180910E08A7
:1001200090910F088C9710F40E94620180916000FA
:10013000882361F00E9497140E94EF1464E670E037
:1001400080E090E00E94A41410926000FF91EF9173
:10015000BF91AF919F918F917F916F915F914F91DF
:100160003F912F910F900FBE0F901F9018950E94F6
:100170008C0B2FE38DE093E0215080409040E1F71D
:1001800000C000000E94C40B2FE38DE093E02150DB
:1001900080409040E1F700C000000E94F60B0E94F2
:1001A0001F012FE38DE093E0215080409040E1F764
:1001B00000C000000E94860B0E94BE0B0E94F00B44
:1001C0000E9419010E94A80B2FE38DE093E02150BB
:1001D00080409040E1F700C000000E94E00B0E94C8
:1001E0001F012FE38DE093E0215080409040E1F724
:1001F00000C000000E94A20B0E94DA0B0E941901AD
:100200000895843038F4683038F440E00E94DE010C
:1002100080E0089581E0089581E0089541E067E07D
:1002200082E00E946D0141E067E082E00E94DE0111
:10023000089541E067E082E00E94DE01089567E0F2
:1002400082E00E947D02089541E066E083E00E9422
:100250006D0141E067E083E00E946D0141E066E0EE
:1002600083E00E94DE0141E067E083E00E94DE015E
:100270000E94DA130895CF93DF93EC01662319F0FF
:10028000613061F015C040E066E083E00E94DE016D
:1002900041E067E083E00E94DE010AC041E066E0E1
:1002A00083E00E94DE0140E067E083E00E94DE011F
:1002B000BE0180E090E00E94AD160E94A013DF9185
:1002C000CF91089541E066E083E00E94DE0141E0C5
:1002D00067E083E00E94DE010895442319F0413075
:1002E000C9F10895813091F028F08230D9F083303F
:1002F00029F108952AB381E090E002C0880F991F88
:100300006A95E2F7809582238ABB089527B381E03E
:1003100090E002C0880F991F6A95E2F780958223CA
:1003200087BB089524B381E090E002C0880F991F35
:100330006A95E2F78095822384BB089521B381E01A
:1003400090E002C0880F991F6A95E2F7809582239A
:1003500081BB0895813089F028F08230C9F0833064
:1003600011F108952AB381E090E002C0880F991F2F
:100370006A95E2F7822B8ABB089527B381E090E06B
:1003800002C0880F991F6A95E2F7822B87BB0895F8
:1003900024B381E090E002C0880F991F6A95E2F7CC
:1003A000822B84BB089521B381E090E002C0880FC6
:1003B000991F6A95E2F7822B81BB08954423D9F1F6
:1003C000413009F06BC0813091F028F08230D9F0D3
:1003D000833029F108952BB381E090E002C0880FAB
:1003E000991F6A95E2F7809582238BBB089528B305
:1003F00081E090E002C0880F991F6A95E2F780952E
:10040000822388BB089525B381E090E002C0880F65
:10041000991F6A95E2F78095822385BB089522B3E0
:1004200081E090E002C0880F991F6A95E2F78095FD
:10043000822382BB0895813089F028F08230C9F090
:10044000833011F108952BB381E090E002C0880F52
:10045000991F6A95E2F7822B8BBB089528B381E040
:1004600090E002C0880F991F6A95E2F7822B88BB43
:10047000089525B381E090E002C0880F991F6A9526
:10048000E2F7822B85BB089522B381E090E002C0A1
:10049000880F991F6A95E2F7822B82BB08958130FD
:1004A00079F028F08230A9F08330E1F024C089B3DC
:1004B00090E002C0959587956A95E2F7817008955E
:1004C00086B390E002C0959587956A95E2F78170B2
:1004D000089583B390E002C0959587956A95E2F7F9
:1004E0008170089580B390E002C0959587956A95D4
:1004F000E2F78170089580E00895813089F028F056
:100500008230C9F0833011F108952BB381E090E07F
:1005100002C0880F991F6A95E2F782278BBB089566
:1005200028B381E090E002C0880F991F6A95E2F736
:10053000822788BB089525B381E090E002C0880F30
:10054000991F6A95E2F7822785BB089522B381E05F
:1005500090E002C0880F991F6A95E2F7822782BB5C
:100560000895813089F028F08230C9F0833011F18C
:1005700008952BB381E090E002C0880F991F6A951F
:10058000E2F7822B8BBB089528B381E090E002C094
:10059000880F991F6A95E2F7822B88BB089525B3CF
:1005A00081E090E002C0880F991F6A95E2F7822BE4
:1005B00085BB089522B381E090E002C0880F991FA7
:1005C0006A95E2F7822B82BB08950E942309089561
:1005D0001F93CF93DF93162FD42F883008F087E036
:1005E000C82FC0650E942B098C2F0E943709812FCC
:1005F0000E9453098D2F0E9453090E9461098FE3C5
:100600009CE90197F1F700C00000DF91CF911F91A5
:100610000895CF93DF93D62F883008F087E0C82F56
:10062000C0650E942B098C2F0E9437098D2F0E94D4
:1006300053090E9431098C2F0E9448090E945A09CF
:10064000C82F0E9461098C2FDF91CF9108958FB739
:1006500080688FBF8BB780648BBF40E062E083E02F
:100660000E946D0185B7836085BF0895AF92BF92E8
:10067000CF92DF92EF92FF920F931F93CF93DF936E
:10068000CDB7DEB72C970FB6F894DEBF0FBECDBF47
:100690000E94270A0E9467090E94E5020E94750BCA
:1006A0000E94910B0E94AD0B0E94C90B0E94E50BAA
:1006B0000E948A130E94721319821A821B821C8262
:1006C0001D821E821F82188619861A861B861C862A
:1006D00061E085E00E9409038F3F41F061E085E021
:1006E0000E9409038F5F8093180802C010921808B7
:1006F00060E085E00E9409038F3F71F060E085E0D3
:100700000E9409038F5F80931908D12CF12C0F2EC2
:10071000F3E0EF2EF02D51C510921908F6CF0E948C
:10072000530B8DE690E00E94CD0A60E081E00E94CC
:10073000570B88E790E00E94CD0A2FEF83ED90E3FE
:10074000215080409040E1F700C000000E94530B10
:1007500060E084E00E9409038F3F09F04DC084E807
:1007600090E00E94CD0A60E081E00E94570B8EE885
:1007700090E00E94CD0A2FEF83ED90E3215080405E
:100780009040E1F700C000000E94530B89E990E01F
:100790000E94CD0A60E081E00E94570B88EA90E059
:1007A0000E94CD0A10E00FC00E94AA090AC0482F7B
:1007B000612F84E00E94E8021F5F8AE20E948C0A97
:1007C00080E08111F4CF143078F30E94530B84EB56
:1007D00090E00E94CD0A81E0809313082FEF89E614
:1007E00098E1215080409040E1F700C000000E9455
:1007F000530BDD24D394B9C1809113088111B0C18A
:100800008FEB90E00E94CD0A60E081E00E94570BE0
:1008100088EC90E00E94CD0A80E003C00E94AA0903
:10082000F82E8823D9F30E94530B21E3F21629F006
:1008300082E3F81609F47DC096C10E94530B03E0D1
:1008400081ED90E00E94CD0A10E011C00E94AA093B
:100850000CC0E1E0F0E0EC0FFD1FE10FF11D808323
:100860008AE20E948C0A1F5F80E08111F2CF14306F
:1008700068F30E94530B198160E084E00E94090331
:10088000181329C01A8161E084E00E94090318133B
:1008900022C01B8162E084E00E94090318131BC080
:1008A0001C8163E084E00E940903181314C08DEDDD
:1008B00090E00E94CD0A9FEF23ED80E3915020400D
:1008C0008040E1F700C0000081E0809313080E949F
:1008D000530B00E029C001500E94530B87EE90E0BB
:1008E0000E94CD0A60E081E00E94570B8FEE90E0FD
:1008F0000E94CD0A67E081E00E94570B602F70E0F4
:1009000080E090E00E94E00A9FEF2BE782E991509F
:1009100020408040E1F700C000000E94530B01110D
:1009200003C00E94B700FDCF01118ACFDD24D3940C
:100930001CC180911208813009F044C00E94270A2E
:1009400086EF90E00E94CD0A60E081E00E94570BA4
:1009500085E091E00E94CD0A8EEB97E00E94C015E1
:100960008FE091E00E94C0158AE391E00E94C015DB
:1009700083E591E00E94C0158CE591E00E94C015CE
:100980005F9BFECF8CB1813319F0823371F014C0BC
:100990000E94530B84E691E00E94CD0A83E791E028
:1009A0000E94C015DD24D39409C00E94530B8FE828
:1009B00091E00E94CD0A02C0DD24D394DD2009F429
:1009C000FBC302C0DD24D3940E94530B8CE991E059
:1009D0000E94CD0A0E94530B8CE991E00E94CD0A3F
:1009E00010E010C00E94AA090BC0E5E0F0E0EC0F97
:1009F000FD1FE10FF11D80830E948C0A1F5F80E0C4
:100A00008111F3CF143070F360E081E00E94570B46
:100A100086EA91E00E94CD0A10E011C00E94AA0966
:100A20000CC0E9E0F0E0EC0FFD1FE10FF11D808349
:100A30008AE20E948C0A1F5F80E08111F2CF14309D
:100A400068F30E94530B10E083C00D81612F82E098
:100A50000E94090308137BC0CE8001E0010F602FC4
:100A600082E00E940903C81272C0CF806894BB2440
:100A7000B1F8B10E6B2D82E00E940903C81267C065
:100A8000A8840F2EF3E0CF2EF02DC10E6C2D82E046
:100A90000E940903A8125BC0A984612F83E00E9411
:100AA0000903A81229C01A85602F83E00E94090358
:100AB000181322C01B856B2D83E00E9409031813B5
:100AC0001BC01C856C2D83E00E940903181314C001
:100AD0008DED90E00E94CD0A81E0809313089FEF96
:100AE00023ED80E3915020408040E1F700C00000FA
:100AF0000E94530BE12C31C0EA9487EE90E00E94F3
:100B0000CD0A60E081E00E94570B8FEE90E00E94DA
:100B1000CD0A67E081E00E94570B6E2D70E080E007
:100B200090E00E94E00A9FEF23ED80E39150204087
:100B30008040E1F700C00000E1100FC00E94530B9D
:100B400082EB91E00E94CD0A0E94B700FDCF1F5FAB
:100B500080911908181708F478CFE1103BCF05C031
:100B6000DD24D39402C0DD24D39480911308813016
:100B700009F023C30E94530B87EC91E00E94CD0A39
:100B800060E081E00E94570B88ED91E00E94CD0A61
:100B900080E003C00E94AA09F82E8823D9F38FECC5
:100BA0008F0D823008F009C391E3F91609F4FFC1F3
:100BB00022E3F21609F4FBC200C30E94530B87EE36
:100BC00091E00E94CD0A60E081E00E94570B8FEE19
:100BD00091E00E94CD0A69E080E00E94570B87EF08
:100BE00091E00E94CD0A69E081E00E94570B8FEFEF
:100BF00091E00E94CD0A80E003C00E94AA09F82E6D
:100C00008823D9F38FEC8F0D843008F0BAC182E3CA
:100C1000F81609F453C08F1520F091E3F91651F03E
:100C2000B2C123E3F21609F48DC084E3F81609F487
:100C3000CDC0A9C10E94530B86E092E00E94CD0A6C
:100C40009FEF21EE84E0915020408040E1F700C00A
:100C5000000060E081E00E94570B86E192E00E9474
:100C6000CD0A9FEF21EE84E0915020408040E1F7D3
:100C700000C0000080E003C00E94AA09F82E88236B
:100C8000D9F38FEC8F0D823008F07FC191E3F91614
:100C900021F022E3F21651F07AC10E94530B0E9418
:100CA000800B81E08093170811E082C10E94530BF2
:100CB0000E94860B1092170811E07AC10E94530B14
:100CC00086E092E00E94CD0A8FEF91EE24E0815001
:100CD00090402040E1F700C0000060E081E00E9409
:100CE000570B86E192E00E94CD0A8FEF91EE24E04F
:100CF000815090402040E1F700C0000080E003C038
:100D00000E94AA09F82E8823D9F38FEC8F0D823028
:100D100008F03FC181E3F81621F092E3F91651F093
:100D20003AC10E94530B0E949C0B81E080931608ED
:100D300011E03EC10E94530B0E94A20B10921608B4
:100D400011E036C10E94530B86E092E00E94CD0A6A
:100D50002FEF81EE94E0215080409040E1F700C0F9
:100D6000000060E081E00E94570B86E192E00E9463
:100D7000CD0A2FEF81EE94E0215080409040E1F7C2
:100D800000C0000080E003C00E94AA09F82E88235A
:100D9000D9F38FEC8F0D823008F0FFC021E3F216FB
:100DA00021F082E3F81651F0FAC00E94530B0E9422
:100DB000B80B81E08093150811E0FAC00E94530B34
:100DC0000E94BE0B1092150811E0F2C00E94530B56
:100DD00087E292E00E94CD0A60E081E00E94570B1A
:100DE0008FE292E00E94CD0A68E081E00E94570BFA
:100DF00086E392E00E94CD0A80E003C00E94AA0927
:100E0000F82E8823D9F38BEC8F0D833008F0C9C0FE
:100E100096E3F91609F44DC027E3F21609F4C8C0A9
:100E200085E3F81611F011E0C3C00E94530B86E071
:100E300092E00E94CD0A9FEF21EE84E09150204085
:100E40008040E1F700C0000060E081E00E94570BA5
:100E500086E192E00E94CD0A9FEF21EE84E091505E
:100E600020408040E1F700C0000080E003C00E9405
:100E7000AA09F82E8823D9F38FEC8F0D823008F061
:100E800092C091E3F91621F022E3F21651F08DC0E1
:100E90000E94530B0E94D40B81E08093140811E050
:100EA00087C00E94530B0E94DA0B1092140811E0C5
:100EB0007FC00E94530B8DE392E00E94CD0A67E051
:100EC00080E00E94570B83E492E00E94CD0A60E02C
:100ED00081E00E94570B89E492E00E94CD0A67E00E
:100EE00081E00E94570B8FE492E00E94CD0A80E0DF
:100EF00003C00E94AA09F82E8823D9F38FEC8F0D26
:100F00008430B8F582E3F816B9F08F1520F091E33C
:100F1000F91641F02EC023E3F216C1F084E3F8166F
:100F2000F9F027C060E070E088EC91E40E94A01323
:100F300081E0809310081DC060E070E088E492E4D6
:100F40000E94A01381E08093100813C060E070E05D
:100F500086E992E40E94A01381E08093100809C002
:100F600060E070E088EC92E40E94A01381E080933E
:100F700010080E94530B86E592E00E94CD0A11E012
:100F800017C011E015C011E013C011E011C011E04D
:100F90000FC011E00DC011E00BC011E009C011E05D
:100FA00007C011E005C011E003C011E001C010E06E
:100FB000112309F402CE01C10E94530B87EE91E088
:100FC0000E94CD0A69E080E00E94570B8FEE91E00D
:100FD0000E94CD0A60E081E00E94570B87EF91E00C
:100FE0000E94CD0A69E081E00E94570B8FEF91E0EB
:100FF0000E94CD0A80E003C00E94AA09F82E88232F
:10100000D9F38FEC8F0D843008F0CBC092E3F91642
:10101000A9F19F1520F021E3F21651F0C4C083E33B
:10102000F81609F451C094E3F91609F473C0BBC073
:1010300080911708813089F40E94530B8BE592E070
:101040000E94CD0A2FEF87EA91E621508040904020
:10105000E1F700C0000011E0ABC00E94530B86E630
:1010600092E00E94CD0A2FEF87EA91E6215080405E
:101070009040E1F700C0000011E09AC0809116088E
:10108000813089F40E94530B8BE592E00E94CD0AD7
:101090002FEF87EA91E6215080409040E1F700C0B1
:1010A000000011E085C00E94530B86E692E00E948A
:1010B000CD0A2FEF87EA91E6215080409040E1F77A
:1010C00000C0000011E074C080911508813089F4DF
:1010D0000E94530B8BE592E00E94CD0A2FEF87EA26
:1010E00091E6215080409040E1F700C0000011E0FF
:1010F0005FC00E94530B86E692E00E94CD0A2FEF5C
:1011000087EA91E6215080409040E1F700C000005E
:1011100011E04EC00E94530B82E792E00E94CD0A7C
:1011200060E081E00E94570B8BE792E00E94CD0ABD
:1011300080E003C00E94AA09F82E8823D9F38BEC23
:101140008F0D823090F525E3F21629F086E3F8162C
:1011500079F111E02DC080911408813089F40E944A
:10116000530B8BE592E00E94CD0A9FEF27EA81E6C0
:10117000915020408040E1F700C0000011E018C00D
:101180000E94530B86E692E00E94CD0A9FEF27EA69
:1011900081E6915020408040E1F700C0000011E05E
:1011A00007C011E005C011E003C011E001C010E06C
:1011B000112309F401CF01C0F12CDD2009F4AFCADD
:1011C0002C960FB6F894DEBF0FBECDBFDF91CF9146
:1011D0001F910F91FF90EF90DF90CF90BF90AF9055
:1011E00008951F920F920FB60F9211242F933F93E1
:1011F0004F935F936F937F938F939F93AF93BF931F
:10120000EF93FF930E9436030E94530B82E892E013
:101210000E94CD0A60E081E00E94570B83E992E0D2
:101220000E94CD0AFF91EF91BF91AF919F918F9155
:101230007F916F915F914F913F912F910F900FBED2
:101240000F901F90189580E88FBF85E086BF8CE0D7
:1012500080B911B8089584EA86BF06B607FEFDCFAF
:10126000089584EA86BF06B607FEFDCF0895880F6D
:1012700083B984E886BF06B607FEFDCF2FEF81EE67
:1012800094E0215080409040E1F700C000000895B4
:1012900090E0880F991F816083B984E886BF06B605
:1012A00007FEFDCF089583B984E886BF06B607FE22
:1012B000FDCF089584E886BF06B607FEFDCF83B153
:1012C000089584E986BF86B7806886BF089540E0A8
:1012D00063E080E00E946D0140E064E080E00E94F5
:1012E0006D0140E065E080E00E946D0140E066E055
:1012F00080E00E946D0163E080E00E94B10264E042
:1013000080E00E94B10265E080E00E94B10266E0E8
:1013100080E00E94B10241E060E081E00E946D0146
:1013200041E061E081E00E946D0141E062E081E026
:101330000E946D0140E060E081E00E94DE0140E03B
:1013400061E081E00E94DE0140E062E081E00E9415
:10135000DE0108951F93CF93DF93D0E010E029C002
:1013600041E06D2F81E00E94DE01C3E01AC06C2FC6
:1013700080E00E944F02811113C08C2F90E00397F0
:10138000FC01EE0FFF1FE80FF91FEF59FF4FED0FA4
:10139000F11D10816C2F80E00E944F028823D1F351
:1013A000CF5FC73020F340E06D2F81E00E94DE0167
:1013B000DF5FD330A8F2812FDF91CF911F91089585
:1013C000CF93C82F41E060E080E00E94DE0141E061
:1013D00061E080E00E94DE0141E062E080E00E9486
:1013E000DE0188B39C2F907F8F70892B88BB40E0F3
:1013F00062E080E00E94DE018FE99FE00197F1F753
:1014000000C0000041E062E080E00E94DE0120E1D7
:10141000C29FC001112498B39F70892B88BB40E004
:1014200062E080E00E94DE018FE99FE00197F1F722
:1014300000C0000041E062E080E00E94DE018FE138
:101440009EE40197F1F700C00000CF91089541E0BC
:1014500060E080E00E946D0141E061E080E00E9478
:101460006D0141E062E080E00E946D0141E064E0D6
:1014700081E00E946D0141E065E081E00E946D0124
:1014800041E066E081E00E946D0141E067E081E0BB
:101490000E946D0141E060E080E00E94DE0141E0D9
:1014A00061E080E00E94DE0141E062E080E00E94B5
:1014B000DE0141E064E081E00E94DE0141E065E0A0
:1014C00081E00E94DE0141E066E081E00E94DE01F1
:1014D00041E067E081E00E94DE012FEF81EE94E0C1
:1014E000215080409040E1F700C0000083E30E945B
:1014F000E00982E30E94E00988E20E94E00981E0BD
:101500000E94E00982E00E94E00986E00E94E00972
:101510008EE00E94E0090895CF93C82F40E060E07C
:1015200080E00E94DE0141E061E080E00E94DE0197
:1015300041E062E080E00E94DE0188B39C2F907F52
:101540008F70892B88BB40E062E080E00E94DE0162
:101550008FE99FE00197F1F700C0000041E062E0F1
:1015600080E00E94DE0120E1C29FC001112498B3F7
:101570009F70892B88BB40E062E080E00E94DE0122
:101580008FE99FE00197F1F700C0000041E062E0C1
:1015900080E00E94DE01CF9108950F931F93CF93B7
:1015A0008C01C0E003C00E948C0ACF5FF801EC0FF1
:1015B000F11D80818111F7CFCF911F910F91089577
:1015C0008F929F92AF92BF92EF92FF920F931F93D1
:1015D000CF93DF934B015C01672B682B692B19F4C8
:1015E00080E30E948C0A01E010E0E12CF12C2FC076
:1015F000C701880F991FB701660F771F660F771F06
:10160000660F771F7C01E60EF71EC501B4012AE0C4
:1016100030E040E050E00E94E517E60EF71EE114CE
:10162000F10459F4C801880F991F000F111F000F12
:10163000111F000F111F080F191FC501B4012AE067
:1016400030E040E050E00E94E51749015A01811462
:101650009104A104B10461F6A12CB12C16C0C701FC
:101660006AE070E00E94D117D62FC72F805D0E94DC
:101670008C0AED2EFC2EE114F10439F40A30110528
:1016800024F07801AA24A394B12CEA14FB0439F7BE
:10169000DF91CF911F910F91FF90EF90BF90AF908E
:1016A0009F908F90089581E00E94E0090895CF9364
:1016B000DF9300D0CDB7DEB790E8998390EC9A83A2
:1016C000823008F080E0683208F060E0E1E0F0E0AD
:1016D000EC0FFD1FE80FF11D8081860F0E94E009CD
:1016E0000F900F90DF91CF91089541E062E082E08A
:1016F0000E946D0141E062E082E00E94DE010895F7
:1017000040E062E082E00E94DE01089541E062E094
:1017100082E00E94DE01089562E082E00E947D0284
:10172000089541E063E082E00E946D0141E063E0E2
:1017300082E00E94DE01089540E063E082E00E94C2
:10174000DE01089541E063E082E00E94DE01089539
:1017500063E082E00E947D02089541E064E082E05F
:101760000E946D0141E064E082E00E94DE01089584
:1017700040E064E082E00E94DE01089541E064E020
:1017800082E00E94DE01089564E082E00E947D0212
:10179000089541E065E082E00E946D0141E065E06E
:1017A00082E00E94DE01089540E065E082E00E9450
:1017B000DE01089541E065E082E00E94DE010895C7
:1017C00065E082E00E947D02089541E066E082E0EB
:1017D0000E946D0141E066E082E00E94DE01089512
:1017E00041E066E082E00E94DE01089566E082E06A
:1017F0000E947D020895CF93DF93CDB7DEB72C977B
:101800000FB6F894DEBF0FBECDBF78940E94270AB2
:101810000E9467090E94E5020E949D150E94270A06
:1018200082B362E00E9401010E9467090E942703BF
:101830000E9472130E94750B0E94910B0E94AD0BC7
:101840000E94C90B0E94E50B0E940E010E94240118
:101850000E9449000E948A130E94DA1319821A8298
:101860001B821C821D821E821F82188660E087E018
:101870000E9409038F3F41F060E087E00E94090366
:101880008F5F80931B0802C010921B0861E087E005
:101890000E9409038F3F41F061E087E00E94090345
:1018A0008F5F80931A0802C010921A0861E085E0E9
:1018B0000E9409038F3F41F061E085E00E94090327
:1018C0008F5F8093180802C01092180860E085E0CE
:1018D0000E9409038F3F41F060E085E00E94090308
:1018E0008F5F8093190802C0109219080E94270A7E
:1018F0000E94530B8CE992E00E94CD0A60E081E0E7
:101900000E94570B8CEA92E00E94CD0A8BEB92E08A
:101910000E94C01560E086E00E9409038F3F09F035
:1019200092C184ED92E00E94C0152FEF89E698E104
:10193000215080409040E1F700C000008BEE92E023
:101940000E94C0152FEF89E698E121508040904019
:10195000E1F700C000008FEE92E00E94C01510E099
:101960000AC05F9BFECF0E94D315482F612F86E0EF
:101970000E94E8021F5F1430A0F32FEF89E698E180
:10198000215080409040E1F700C000008EEB97E0CE
:101990000E94C01580E093E00E94C01559C181E00B
:1019A0008093110881E193E00E94C0158EEB97E0CF
:1019B0000E94C0152FEF89E698E1215080409040A9
:1019C000E1F700C0000080E293E00E94C0152FEF15
:1019D00089E698E1215080409040E1F700C0000086
:1019E0008BE293E00E94C0152FEF89E698E1215029
:1019F00080409040E1F700C0000086E393E00E9441
:101A0000C0150E94D3155F9BFECF8CB1813321F0AE
:101A1000823309F461C00DC119861A861B861C86A3
:101A200013E08EEB97E00E94C01586E593E00E94DC
:101A3000C01500E00EC05F9BFECFE02EF12C0E948F
:101A4000D315E9E0F0E0EC0FFD1FEE0DFF1D8083E4
:101A50000F5F043080F3098560E086E00E9409038F
:101A6000081322C00A8561E086E00E94090308137A
:101A70001BC00B8562E086E00E940903081314C0B6
:101A80000C8563E086E00E94090308130DC08EEB0D
:101A900097E00E94C01583E693E00E94C01581E0A4
:101AA0008093120810E015C011508EEB97E00E9451
:101AB000C0158FE693E00E94C0158EE793E00E9468
:101AC000C015111103C00E94B700FDCF812F0E94E5
:101AD000BC151111A6CFB7C003E08EEB97E00E94B2
:101AE000C0158FEA93E00E94C01510E00EC05F9B06
:101AF000FECFE12EF12C0E94D315E1E0F0E0EC0FD7
:101B0000FD1FEE0DFF1D80831F5F143080F38EEBF1
:101B100097E00E94C01585EF92E00E94C01510E08A
:101B20000EC05F9BFECFE12EF12C0E94D315E5E0A5
:101B3000F0E0EC0FFD1FEE0DFF1D80831F5F1430E2
:101B400080F310E064C0F980612F80E00E940903F7
:101B5000F8125CC0EA80FF24F394F10E6F2D80E050
:101B60000E940903E81252C0EB806894DD24D1F88A
:101B7000D10E6D2D80E00E940903E81247C0CC8091
:101B80000F2EF3E0EF2EF02DE10E6E2D80E00E947F
:101B90000903C8123BC0CD80612F81E00E94090378
:101BA000C8121FC0CE806F2D81E00E940903C812A9
:101BB00018C0FF806D2D81E00E940903F81211C04A
:101BC000F8846E2D81E00E940903F8120AC08EEBA2
:101BD00097E00E94C01583E693E00E94C01500E0E4
:101BE0001BC001508EEB97E00E94C0158FE693E07A
:101BF0000E94C01581E993E00E94C015011103C045
:101C00000E94B700FDCF802F0E94BC151F5F8091FE
:101C10001B08811708F097CF033041F48EEB97E053
:101C20000E94C01589EA93E00E94C015011155CFAA
:101C30000AC08EEB97E00E94C0158AEB93E00E94E9
:101C4000C0151092110880911108882309F4A7CEBD
:101C50008EEB97E00E94C01589ED93E00E94C015BD
:101C600082EF93E00E94C0158DE094E00E94C015C1
:101C70008BE194E00E94C0152FEF81EE94E021509B
:101C800080409040E1F700C000008CE294E00E94A8
:101C9000C0150E94D3155F9BFECF8CB1823309F42F
:101CA00091C218F4813341F009C5833309F436C376
:101CB000843309F4F6C302C58EEB97E00E94C01589
:101CC00088E494E00E94C0152FEF81EE94E021504B
:101CD00080409040E1F700C0000087E594E00E945A
:101CE000C0152FEF81EE94E0215080409040E1F745
:101CF00000C000008CE694E00E94C0152FEF81EE3A
:101D000094E0215080409040E1F700C0000088E757
:101D100094E00E94C0152FEF81EE94E021508040A6
:101D20009040E1F700C0000084E894E00E94C015F4
:101D30002FEF81EE94E0215080409040E1F700C009
:101D4000000083E994E00E94C0152FEF81EE94E03B
:101D5000215080409040E1F700C000008CE294E008
:101D60000E94C0155F9BFECF8CB18333B9F128F47C
:101D7000813361F08233F1F020C2853309F4E0C091
:101D800008F487C0863309F432C117C28EEB97E09E
:101D90000E94C0150E947C132FEF83EC99E0215024
:101DA00080409040E1F700C0000084EA94E00E9487
:101DB000C0154ECF8EEB97E00E94C0150E94831392
:101DC0002FEF83EC99E0215080409040E1F700C074
:101DD000000082EB94E00E94C0153ACF8EEB97E0B2
:101DE0000E94C01580EC94E00E94C0152FEF83EC98
:101DF00099E0215080409040E1F700C0000083ED61
:101E000094E00E94C0155F9BFECF8CB1813319F026
:101E10008233E1F039C080911708811112C08EEB36
:101E200097E00E94C0150E94800B81E08093170804
:101E30008EEB97E00E94C01587EE94E00E94C015DB
:101E400007CF82E095E00E94C01502CF8EEB97E0AD
:101E50000E94C01580911708813069F40E94860B9A
:101E60008EEB97E00E94C0158CE195E00E94C015B2
:101E700010921708EDCE8EEB97E00E94C01588E314
:101E800095E00E94C015E4CE83E595E00E94C01560
:101E9000DFCE8EEB97E00E94C01580EC94E00E94AC
:101EA000C0152FEF83EC99E0215080409040E1F77E
:101EB00000C0000081E695E00E94C0155F9BFECF48
:101EC0008CB1813319F08233C1F035C0809116088E
:101ED00081110EC00E949C0B81E0809316088EEB4E
:101EE00097E00E94C01587EE94E00E94C015B0CE26
:101EF00082E095E00E94C015ABCE8EEB97E00E9489
:101F0000C01580911608813069F40E94860B8EEB13
:101F100097E00E94C0158CE195E00E94C0151092D8
:101F2000160896CE8EEB97E00E94C01588E395E0E8
:101F30000E94C0158DCE83E595E00E94C01588CE25
:101F40008EEB97E00E94C01580EC94E00E94C015D3
:101F50002FEF83EC99E0215080409040E1F700C0E2
:101F6000000081E695E00E94C0155F9BFECF8CB11A
:101F7000813319F08233C1F035C080911508811189
:101F80000EC00E94B80B81E0809315088EEB97E09D
:101F90000E94C01587EE94E00E94C01559CE82E0E1
:101FA00095E00E94C01554CE8EEB97E00E94C015BC
:101FB00080911508813069F40E94BE0B8EEB97E08A
:101FC0000E94C0158CE195E00E94C0151092150882
:101FD0003FCE8EEB97E00E94C01588E395E00E940B
:101FE000C01536CE83E595E00E94C01531CE8EEB4C
:101FF00097E00E94C01580EC94E00E94C0152FEF7E
:1020000083EC99E0215080409040E1F700C000004F
:1020100081E695E00E94C0152FEF83EC99E02150F6
:1020200080409040E1F700C0000085E795E00E9405
:10203000C0155F9BFECF8CB18233E1F08333C1F1D9
:10204000813309F005CE8091140881110EC00E94E1
:10205000D40B81E0809314088EEB97E00E94C015AA
:1020600087EE94E00E94C015F3CD82E095E00E94D7
:10207000C015EECD8EEB97E00E94C015809114083C
:10208000813069F40E94DA0B8EEB97E00E94C01554
:102090008CE195E00E94C01510921408D9CD8EEB0A
:1020A00097E00E94C01588E395E00E94C015D0CD4E
:1020B0000E948A1387E895E00E94C01585E995E0A3
:1020C0000E94C01585EB95E00E94C01583EC95E059
:1020D0000E94C0158CEC95E00E94C01588ED95E03B
:1020E0000E94C01582EE95E00E94C01581EF95E038
:1020F0000E94C0155F9BFECF10E05BC08CB18333A4
:1021000011F128F4813349F0823391F04EC08533C8
:1021100081F120F18633C1F148C081E0809310083D
:1021200060E070E080EA91E40E94A01311E041C0F9
:1021300081E08093100860E070E080E292E40E9409
:10214000A01311E036C081E08093100860E070E0D9
:1021500080E792E40E94A01311E02BC081E08093FD
:10216000100860E070E080EA92E40E94A01311E0A1
:1021700020C081E08093100860E070E088EC92E479
:102180000E94A01311E015C080911008811106C0B3
:102190008FEF95E00E94C01511E00BC060E070E089
:1021A000CB010E94A01311E004C083E595E00E94DA
:1021B000C015112309F4A2CF4BCD83E595E00E9411
:1021C000C01546CD8EEB97E00E94C01584E196E0E5
:1021D0000E94C0152FEF81EE94E021508040904086
:1021E000E1F700C0000080E296E00E94C0152FEFEA
:1021F00081EE94E0215080409040E1F700C0000063
:102200008CE296E00E94C0152FEF81EE94E0215001
:1022100080409040E1F700C000008BE396E00E9410
:10222000C0152FEF81EE94E0215080409040E1F7FF
:1022300000C000008CE496E00E94C0158CE294E09F
:102240000E94C0155F9BFECF8CB1823301F118F460
:10225000813339F05EC0833381F1843309F443C0A4
:1022600058C080911708813049F48EEB97E00E94A6
:10227000C01587E696E00E94C015EACC8EEB97E089
:102280000E94C01582E896E00E94C015E1CC8091C2
:102290001608813049F48EEB97E00E94C0158EE954
:1022A00096E00E94C015D4CC8EEB97E00E94C0153A
:1022B00089EB96E00E94C015CBCC80911508813047
:1022C00049F48EEB97E00E94C01585ED96E00E94E0
:1022D000C015BECC8EEB97E00E94C01587EF96E04C
:1022E0000E94C015B5CC80911408813049F48EEB62
:1022F00097E00E94C01586E197E00E94C015A8CC27
:102300008EEB97E00E94C01587E397E00E94C0150E
:102310009FCC83E595E00E94C0159ACC8EEB97E0A8
:102320000E94C01589E597E00E94C01585E697E0F8
:102330000E94C0150E94D3155F9BFECF8CB18133E4
:1023400021F0823309F457C083CC8EEB97E00E94D2
:10235000C0158DE697E00E94C01510E010C05F9B8D
:10236000FECF0E94D315482F6091190882E00E9489
:10237000E802809119088F5F809319081F5F14305D
:1023800070F34091190860E085E00E94E8028EEB4E
:1023900097E00E94C0158FE797E00E94C01510E0FB
:1023A00010C05F9BFECF0E94D315482F6091180884
:1023B00083E00E94E802809118088F5F80931808DC
:1023C0001F5F143070F34091180861E085E00E94AF
:1023D000E8028EEB97E00E94C01586E997E00E9424
:1023E000C0152FEF89E698E1215080409040E1F739
:1023F00000C000002DCC8EEB97E00E94C0158DE64A
:1024000097E00E94C01510E010C05F9BFECF0E94B5
:10241000D315482F60911B0880E00E94E80280914C
:102420001B088F5F80931B081F5F143070F340916F
:102430001B0860E087E00E94E8028EEB97E00E94B4
:10244000C0158BEA97E00E94C01510E010C05F9B9A
:10245000FECF0E94D315482F60911A0881E00E9498
:10246000E80280911A088F5F80931A081F5F14306A
:1024700070F340911A0861E087E00E94E8028EEB59
:1024800097E00E94C01586E997E00E94C0152FEFE3
:1024900089E698E1215080409040E1F700C00000BB
:1024A000D7CB8EEB97E00E94C01589E597E00E949C
:1024B000C01585E697E00E94C0150E94D3155F9B6A
:1024C000FECF8CB119861A861B861C86813321F0BB
:1024D000823309F47AC0BCCB8EEB97E00E94C01522
:1024E00081EC97E00E94C01510E00EC05F9BFECF0C
:1024F000E12EF12C0E94D315E9E0F0E0EC0FFD1F76
:10250000EE0DFF1D80831F5F143080F3809119084A
:10251000882309F49DCB60E082E00E94090399853D
:1025200089134AC061E082E00E9409039A858913F9
:1025300043C062E082E00E9409039B8589133CC08E
:1025400063E082E00E9409039C85891335C08EEB0D
:1025500097E00E94C01584ED97E00E94C0154FEFF0
:1025600060E082E00E94E8024FEF61E082E00E94BA
:10257000E8024FEF62E082E00E94E8024FEF63E082
:1025800082E00E94E8024FEF60E083E00E94E802F0
:102590004FEF61E083E00E94E8024FEF62E083E0EA
:1025A0000E94E8024FEF63E083E00E94E8028CEDB6
:1025B00097E00E94C0154CCB8EEB97E00E94C015AF
:1025C00086EE97E00E94C01543CB8EEB97E00E9409
:1025D000C01581EC97E00E94C01510E00EC05F9B13
:1025E000FECFE12EF12C0E94D315E9E0F0E0EC0FD4
:1025F000FD1FEE0DFF1D80831F5F143080F380915F
:102600001B08882309F424CB60E080E00E940903C2
:10261000998589134AC061E080E00E9409039A8588
:10262000891343C062E080E00E9409039B858913FF
:102630003CC063E080E00E9409039C85891335C09B
:102640008EEB97E00E94C01584ED97E00E94C015C4
:102650004FEF60E080E00E94E8024FEF61E080E031
:102660000E94E8024FEF62E080E00E94E8024FEF34
:1026700063E080E00E94E8024FEF60E081E00E94AA
:10268000E8024FEF61E081E00E94E8024FEF62E074
:1026900081E00E94E8024FEF63E081E00E94E802DF
:1026A0008CED97E00E94C015D3CA8EEB97E00E9494
:1026B000C01586EE97E00E94C015CACA8AEF97E05F
:1026C0000E94C015C5CA1DBC1CBC27E833E137BD3C
:1026D00026BD7BBD6ABD8FB5826A8FBD8EB58B610D
:1026E0008EBD089581B3806381BB61E670E080E0B8
:1026F00090E00E94631308956CE371E080E090E045
:102700000E946313089561E670E080E090E00E940B
:10271000631308958FB780688FBF83B7877F83BFA8
:1027200083B7806483BF83B78F7C806283BF89B7A0
:10273000816089BF41E063E081E00E946D010895FE
:10274000CF92DF92EF92FF926B017C0120E030E0AC
:10275000A9010E94071688235CF020E030E048ECD5
:1027600052E4C701B6010E945F1718162CF00CC086
:10277000C12CD12C760108C00F2EC12CD12CF8EC25
:10278000EF2EF2E4FF2EF02D20E030E04FE753E48F
:10279000C701B6010E94641720E030E048EC52E423
:1027A0000E940C160E947E166CBFFF90EF90DF9087
:1027B000CF90089583B7887F856083BF089583B7DE
:1027C000887F83BF08951F920F920FB60F92112436
:1027D0002F933F934F935F936F937F938F939F9329
:1027E000AF93BF93EF93FF938091280890912908AE
:1027F000A0912A08B0912B080196A11DB11D8093CC
:10280000280890932908A0932A08B0932B08409198
:1028100030085091310860E070E084179507A607F2
:10282000B70769F40E94DF13109228081092290854
:1028300010922A0810922B0880912F0882BFFF91D6
:10284000EF91BF91AF919F918F917F916F915F9128
:102850004F913F912F910F900FBE0F901F901895A1
:102860001F920F920FB60F9211244F935F936F93A5
:102870007F938F939F93AF93BF9380912408909100
:102880002508A0912608B09127080196A11DB11D29
:102890008093240890932508A0932608B0932708D6
:1028A00081309105A105B105B9F4409130085091EE
:1028B000310860E070E084179507A607B70761F458
:1028C00010922408109225081092260810922708CA
:1028D00080912F088CBF1EC081309105A105B105E4
:1028E00019F48FEF8CBF16C0409130085091310819
:1028F00060E070E084179507A607B70759F41092B7
:10290000240810922508109226081092270880911A
:102910002F088CBFBF91AF919F918F917F916F9145
:102920005F914F910F900FBE0F901F9018958FB72A
:1029300080688FBF85B5886085BD85B58F7B85BD77
:1029400089B7806889BF08950F931F939B01AC01DD
:10295000A8EEB3E00E9407188B019C01689415F85B
:1029600036952795179507951694D1F7013041E0D4
:1029700014072105310560F48FEF800F80932C0838
:1029800083BD81E090E090932E0880932D0824C0B1
:1029900001110CC0AB01BC01032E3EE0769567959A
:1029A000579547953A95D1F7302D0DC0AB01BC0135
:1029B000032E3EE076956795579547953A95D1F762
:1029C000302D4F5F5F4F50932E0840932D088FEFAF
:1029D000800F80932C0883BD1F910F91089585B5BA
:1029E000876085BD08951F920F920FB60F92112434
:1029F0004F935F936F937F938F939F93AF93BF9307
:102A00008091200890912108A0912208B09123087C
:102A10000196A11DB11D8093200890932108A093D9
:102A20002208B093230840912D0850912E0860E0B1
:102A300070E084179507A607B70759F4109220088D
:102A400010922108109222081092230880912C08DD
:102A500084BDBF91AF919F918F917F916F915F9155
:102A60004F910F900FBE0F901F9018951F920F92CD
:102A70000FB60F9211244F935F936F937F938F93B1
:102A80009F93AF93BF9380911C0890911D08A091D4
:102A90001E08B0911F080196A11DB11D80931C084E
:102AA00090931D08A0931E08B0931F0881309105D4
:102AB000A105B105B9F440912D0850912E0860E0B0
:102AC00070E084179507A607B70761F410921C08F9
:102AD00010921D0810921E0810921F0880912C0859
:102AE00083BD1EC081309105A105B10519F48FEF9A
:102AF00083BD16C040912D0850912E0860E070E013
:102B000084179507A607B70759F410921C0810926E
:102B10001D0810921E0810921F0880912C0883BD7A
:102B2000BF91AF919F918F917F916F915F914F91E5
:102B30000F900FBE0F901F9018958FB780688FBFB2
:102B40008AB1806C8AB941E061E083E00E946D0146
:102B500040E060E083E00E946D018AB18772886185
:102B60008AB98BB182608BB980B58174866A80BD69
:102B70008FEC89B910BC08958CB95D9BFECF089588
:102B80000F931F93CF938C01C0E003C00E94BC152C
:102B9000CF5FF801EC0FF11D80818A30B9F7CF913A
:102BA0001F910F9108955D9BFECF8CB108951F92E8
:102BB0000F920FB60F9211242F933F934F935F9371
:102BC0006F937F938F939F93AF93BF93EF93FF93F5
:102BD00088E098E00E94C015FF91EF91BF91AF91FE
:102BE0009F918F917F916F915F914F913F912F9125
:102BF0000F900FBE0F901F9018951F920F920FB657
:102C00000F9211240F900FBE0F901F9018950E94E5
:102C1000EA1608F481E008950E9420160C94251706
:102C20000E941E1758F00E94171740F029F45F3FCA
:102C300029F00C940E1751110C9459170C94141779
:102C40000E94361768F39923B1F3552391F3951B2E
:102C5000550BBB27AA2762177307840738F09F5FBD
:102C60005F4F220F331F441FAA1FA9F335D00E2E2A
:102C70003AF0E0E832D091505040E695001CCAF797
:102C80002BD0FE2F29D0660F771F881FBB1F26175A
:102C900037074807AB07B0E809F0BB0B802DBF0131
:102CA000FF2793585F4F3AF09E3F510578F00C9400
:102CB0000E170C9459175F3FE4F3983ED4F38695B2
:102CC00077956795B795F7959F5FC9F7880F911D21
:102CD0009695879597F90895E1E0660F771F881F0D
:102CE000BB1F621773078407BA0720F0621B730BC0
:102CF000840BBA0BEE1F88F7E09508950E943E17EB
:102D000088F09F5798F0B92F9927B751B0F0E1F0AC
:102D1000660F771F881F991F1AF0BA95C9F714C05C
:102D2000B13091F00E945817B1E008950C945817F3
:102D3000672F782F8827B85F39F0B93FCCF3869595
:102D400077956795B395D9F73EF4909580957095F2
:102D500061957F4F8F4F9F4F0895E89409C097FB6F
:102D60003EF490958095709561957F4F8F4F9F4F62
:102D70009923A9F0F92F96E9BB279395F6958795A6
:102D800077956795B795F111F8CFFAF4BB0F11F469
:102D900060FF1BC06F5F7F4F8F4F9F4F16C0882310
:102DA00011F096E911C0772321F09EE8872F762F46
:102DB00005C0662371F096E8862F70E060E02AF087
:102DC0009A95660F771F881FDAF7880F9695879573
:102DD00097F90895990F0008550FAA0BE0E8FEEF48
:102DE00016161706E807F907C0F012161306E407CF
:102DF000F50798F0621B730B840B950B39F40A26C8
:102E000061F0232B242B252B21F408950A2609F4A5
:102E1000A140A6958FEF811D811D089597F99F67A9
:102E200080E870E060E008959FEF80EC0895002452
:102E30000A941616170618060906089500240A941F
:102E400012161306140605060895092E0394000CA5
:102E500011F4882352F0BB0F40F4BF2B11F460FF34
:102E600004C06F5F7F4F8F4F9F4F089557FD90585D
:102E7000440F551F59F05F3F71F04795880F97FB3E
:102E8000991F61F09F3F79F08795089512161306F8
:102E90001406551FF2CF4695F1DF08C01616170627
:102EA0001806991FF1CF869571056105089408955C
:102EB000E894BB2766277727CB0197F908950E94EE
:102EC000EA1608F48FEF08950E9477170C942517DF
:102ED0000E94171738F00E941E1720F0952311F05A
:102EE0000C940E170C94141711240C9459170E946B
:102EF000361770F3959FC1F3950F50E0551F629FF1
:102F0000F001729FBB27F00DB11D639FAA27F00D42
:102F1000B11DAA1F649F6627B00DA11D661F829F69
:102F20002227B00DA11D621F739FB00DA11D621F4E
:102F3000839FA00D611D221F749F3327A00D611D6B
:102F4000231F849F600D211D822F762F6A2F11244D
:102F50009F5750409AF0F1F088234AF0EE0FFF1F80
:102F6000BB1F661F771F881F91505040A9F79E3FD7
:102F7000510580F00C940E170C9459175F3FE4F341
:102F8000983ED4F3869577956795B795F795E7952D
:102F90009F5FC1F7FE2B880F911D9695879597F936
:102FA000089597FB072E16F4009407D077FD09D0FB
:102FB0000E94121807FC05D03EF4909581959F4F12
:102FC0000895709561957F4F0895A1E21A2EAA1B6E
:102FD000BB1BFD010DC0AA1FBB1FEE1FFF1FA217C9
:102FE000B307E407F50720F0A21BB30BE40BF50BC6
:102FF000661F771F881F991F1A9469F7609570954F
:10300000809590959B01AC01BD01CF0108950E9470
:103010002618A59F900DB49F900DA49F800D911D23
:1030200011240895AA1BBB1B51E107C0AA1FBB1F97
:10303000A617B70710F0A61BB70B881F991F5A9544
:10304000A9F780959095BC01CD010895A29FB0018C
:10305000B39FC001A39F700D811D1124911DB29FCC
:0E306000700D811D1124911D0895F894FFCF6D
:10306E00013132333435363738392A302357656CCF
:10307E00636F6D6520746F00486F6D6520537973B3
:10308E0074656D004C6F67696E20466F72004669FD
:10309E007273742074696D65005365742041646D9C
:1030AE00696E20506173730041646D696E205061CA
:1030BE0073733A0050617373205361766564003107
:1030CE002E2041646D696E00322E20477565737433
:1030DE000061646D696E20706173733A004C6F67A6
:1030EE0067656420496E00496E76616C69640054B0
:1030FE007269616C73007761697420666F7220610A
:10310E00646D696E007072656D6973696F6E0074BF
:10311E006865726520697320757365722077616EBC
:10312E007420746F2061636365737320686F6D65BF
:10313E002073797374656D0D0A00646F20796F7555
:10314E002077616E7420746F206C65742068696DD1
:10315E000D0A00312D205965730D0A00322D204EB7
:10316E006F0D0A0041646D696E20417070726F764A
:10317E00656400746865207573657220456E7465AC
:10318E0072207468652073797374656D0D0A004141
:10319E00646D696E2044656E696564005573657271
:1031AE006E616D653A004775657374207061737357
:1031BE003A007573652074686520726573657420B6
:1031CE00627574746F6E00312E436F6E74726F6C15
:1031DE002053797374656D00322E436865636B20DE
:1031EE0073797374656D00312E526F6F6D310032CD
:1031FE002E526F6F6D3200332E526F6F6D3300345F
:10320E002E4D6F726500312E7475726E206F6E20AA
:10321E006C6967687400322E7475726E206F666604
:10322E00206C6967687400352E526F6F6D340036EE
:10323E002E4C414D5000372E4261636B00312D32C2
:10324E00352500322D35302500332D373525003408
:10325E002D3130302500446F6E65004C414D5020AD
:10326E004953204F4E004C414D50204953204F465C
:10327E004600352E526F6F6D203400362E4261633C
:10328E006B00507265737320746865206275747478
:10329E006F6E00746F207374617274005072657378
:1032AE007320627574746F6E20746F007374617224
:1032BE0074204C4344204D6F64650057656C636FFA
:1032CE006D6520546F20486F6D652053797374655A
:1032DE006D0D0A004C6F67696E20466F722046694D
:1032EE007273742054696D650D0A00536574204124
:1032FE00646D696E2050617373776F72640D0A008E
:10330E0050617373776F72642053617665640D0A32
:10331E00004C6F67696E2053797374656D0D0A00EA
:10332E00312E2041646D696E0D0A00322E204775D4
:10333E006573740D0A00506C6561736520456E747B
:10334E00657220596F7572204D6F6465204E756DD4
:10335E006265720D0A0041646D696E20506173736F
:10336E000D0A004C6F6767656420496E0D0A0049AF
:10337E006E76616C696420706173730D0A00506C17
:10338E00656173652054727920616761696E0D0AFB
:10339E00004E756D626572206F6620747269616C85
:1033AE0073206C6566740D0A0057726F6E67205538
:1033BE007365726E616D650D0A0057726F6E6720D0
:1033CE00496E70757420506C656173652054727906
:1033DE0020416761696E0D0A00312E20436F6E74B5
:1033EE00726F6C20486F6D652053797374656D0D27
:1033FE000A00322E20436865636B20537461747526
:10340E0073204F6620486F6D65200D0A00332E2005
:10341E0041646420557365720D0A00342E20446594
:10342E006C65746520557365720D0A00456E746582
:10343E007220596F757220436F6D6D616E64204EF0
:10344E00756D6265720D0A00312E204F70656E200B
:10345E00446F6F720D0A00322E20436C6F7365201D
:10346E0054686520446F6F72200D0A00332E20526F
:10347E006F6F6D20310D0A00342E20526F6F6D204C
:10348E00320D0A00352E20526563657074696F6EB9
:10349E000D0A00362E204D617374657220526F6FC7
:1034AE006D0D0A00446F6F72204F70656E65640D6E
:1034BE000A00446F6F7220436C6F7365640D0A00CF
:1034CE0020312E205475726E204F6E204C616D701F
:1034DE000D0A0020322E205475726E204F66662023
:1034EE004C616D700D0A0020546865204C616D7042
:1034FE00204973205377697463686564204F6E0D9D
:10350E000A0020546865204C616D7020497320615B
:10351E006C7265616479204F6E0D0A0020546865E7
:10352E00204C616D70204973205377697463686510
:10353E0064204F66660D0A0020546865204C616D4C
:10354E007020497320416C7265616479204F666604
:10355E000D0A0057726F6E6720496E7075740D0AF2
:10356E000020322E205475726E206F6666204C61DC
:10357E006D700D0A0020332E2044696D6D6572202A
:10358E004C616D700D0A0044696D6D6572206C6141
:10359E006D700D0A0043686F6F7365207468652047
:1035AE007375697461626C6520696E74656E73699A
:1035BE0074790D0A00312D2056657279204C6F7783
:1035CE000D0A00322D204C6F770D0A00332D204D41
:1035DE00656469756D0D0A00342D20486967680DA4
:1035EE000A00352D205665727920486967680D0AE4
:1035FE0000362D207475726E206F66660D0A0044BB
:10360E00696D6D6572206C616D70206973206F66D7
:10361E00660D0A00312E20526F6F6D20310D0A009B
:10362E00322E20526F6F6D20320D0A00332E205233
:10363E006563657074696F6E0D0A00342E204D61DE
:10364E007374657220526F6F6D0D0A00352E204314
:10365E006865636B205468652054656D7065726192
:10366E00747572650D0A00546865204C616D70208A
:10367E004973204F6E20496E20526F6F6D20310DB1
:10368E000A00546865204C616D70204973206F6686
:10369E006620496E20526F6F6D20310D0A005468FE
:1036AE0065204C616D70204973204F6E20496E204D
:1036BE00526F6F6D20320D0A00546865204C616D9B
:1036CE0070204973206F666620496E20526F6F6DB1
:1036DE0020320D0A00546865204C616D70204973CC
:1036EE00204F6E20496E20546865205265636570C8
:1036FE0074696F6E0D0A00546865204C616D702000
:10370E004973206F666620496E205265636570743A
:10371E00696F6E0D0A00546865204C616D7020490A
:10372E0073204F6E20496E204D6173746572205266
:10373E006F6F6D200D0A00546865204C616D70200E
:10374E004973206F666620496E204D6173746572F1
:10375E0020526F6F6D200D0A00312E204B6579704F
:10376E0061640D0A00322E2050430D0A00456E741E
:10377E00657220557365726E616D65200D0A004588
:10378E006E746572205468652050617373776F7222
:10379E0064203A0D0A005375636365737366756C26
:1037AE006C792041646465640D0A00456E7465721F
:1037BE00205468652050617373776F7264200D0A10
:1037CE0000456E74657220557365726E616D65206D
:1037DE003A0D0A00466F756E640D0A0044656C65FD
:1037EE007465640D0A0055736572206973206E6FDF
:1037FE00742065786973740D0A0057726F6E6720B6
:0E380E00696E7075740D0A0074657374310074
:00000001FF
